:100000000C9470010C9498010C9498010C94980134
:100010000C9498010C9498010C9498010C949801FC
:100020000C9498010C9498010C94410F0C940D0EB3
:100030000C9498010C9498010C9498010C949801DC
:100040000C9498010C9498010C9498010C949801CC
:100050000C9498010C9498010C9498010C94270A24
:100060000C9498010C9498010C9498010C949801AC
:100070000C9498010C9498010C9498010C9498019C
:100080000C9498010C9498010C9498010C9498018C
:100090000C9498010C9498010C9498010C9498017C
:1000A0000C9498010C9498010C949801400B430B0C
:1000B000320B360B3C0B640B640B640B470B4B0B86
:1000C0004F0B550B590B640B5F0B0000000200092E
:1000D0000F0000030401000C0000000000000000FD
:1000E00000000000000000000408020110408040F1
:1000F000102040804080080204018040201002014E
:10010000108010204040040404040403040502028B
:1001100002020403020202020606060606060404A0
:1001200002020204000000002300260029002C0027
:100130002F0000000000250028002B002E003100B9
:1001400000000000240027002A002D00300000C11C
:100150008081C1120100020200004041233680006C
:10016000010102000112010002000000404123369B
:100170008000010102000141726475696E6F204CBC
:100180004C430041726475696E6F204C656F6E61FF
:1001900072646F0004030904080B000202020100EC
:1001A00009040000010202000005240010010524DA
:1001B000010101042402060524060001070581034C
:1001C00010004009040100020A00000007050202B5
:1001D000400000070583024000000000000000000E
:1001E00000002A2B28000000000000000000000092
:1001F000000000000000000000002C9EB4A0A1A29E
:10020000A434A6A7A5AE362D3738271E1F202122DD
:1002100023242526B333B62EB7B89F8485868788D6
:10022000898A8B8C8D8E8F909192939495969798C6
:10023000999A9B9C9D2F3130A3AD35040506070884
:10024000090A0B0C0D0E0F101112131415161718A6
:10025000191A1B1C1DAFB1B0B5000904020001033F
:100260000000000921010100012265000705840347
:1002700040000105010902A1010901A10085010554
:1002800009190129031500250195037501810295BE
:1002900001750581030501093009310938158125EA
:1002A0007F750895038106C0C005010906A1018577
:1002B00002050719E029E715002501750195088158
:1002C00002950175088103950675081500256505D9
:1002D00007190029658100C066070F0A7210C51151
:1002E00011241FBECFEFDAE0DEBFCDBF11E0A0E0EA
:1002F000B1E0E2E4F8E202C005900D92AA33B10742
:10030000D9F722E0AAE3B1E001C01D92AB32B207F7
:10031000E1F712E0C0EED2E004C02297FE010E9495
:10032000FA13C83DD107C9F70E94FE0B0C941F14A5
:100330000C940000FC01858596850895CF93DF938A
:1003400000D000D000D0CDB7DEB7AB011C821D823B
:100350001E82DC01ED91FC910190F081E02D19826B
:100360001A821B829E012F5F3F4FBE016C5F7F4F41
:10037000099526960FB6F894DEBF0FBECDBFDF916C
:10038000CF91089580E991E00895549A0895CF920D
:10039000DF92FF920F931F93CF93DF9300D01F92B2
:1003A000CDB7DEB76C01062FF42E122F61E0802F3F
:1003B0003B835A8379830E94650B60E08F2D0E94F6
:1003C000650B61E0812F0E94650B60E0802F0E9429
:1003D0009E0B60E0812F0E949E0BF60100837981C5
:1003E0007183F2825A81538314833B8135830F904A
:1003F0000F900F90DF91CF911F910F91FF90DF90A1
:10040000CF90089528E030E047E050E066E070E0EB
:1004100080E691E00E94C70120E130E04EE050E02C
:100420006FE070E084E591E00E94C70162E082E045
:100430000E94650B80914C01811145C010923E01D4
:1004400010923D018FEF8093410180934201809390
:10045000430180934401809345018093460181E0EC
:100460008093470110924901109248011092400177
:1004700010923F018091AD019091AE01892B31F432
:100480008BE391E09093AE018093AD01E091AB01DD
:10049000F091AC01309721F08BE391E09583848358
:1004A0008BE391E09093AC018093AB0110924B01F0
:1004B00010924A018EE091E090933C0180933B01C1
:1004C00081E080934C0120E030E04AE050E064E7B6
:1004D00071E08BE391E00E94D4090E94710A60935D
:1004E0006C0170936D0180936E0190936F0108957C
:1004F0008F929F92AF92BF92CF92DF92EF92FF9234
:10050000CF93DF93EC0161E088810E949E0B8AE02B
:1005100090E00E94C80A60E088810E949E0B0E94C1
:10052000710A6B017C018A810E94D40B892B81F4B2
:100530000E94710A6C197D098E099F096A30710544
:100540008105910580F328E233E240E050E029C0C4
:100550000E947D0A6B017C010E94710A4B015C01C3
:100560008A810E94D40B019781F40E94710A681954
:1005700079098A099B096E3171058105910580F31E
:1005800029E233E240E050E00CC00E947D0A6C1981
:100590007D098E099F092AE330E040E050E00E9487
:1005A000B713CA01B901DF91CF91FF90EF90DF90AF
:1005B000CF90BF90AF909F908F900895FF920F9330
:1005C0001F93CF93DF93EC010E9478026A50710968
:1005D000FF24F3946531710508F0F12C0F2D10E024
:1005E0008A859B858017910749F4888599858A308B
:1005F000910544F401969987888704C01986188666
:100600001B870A878E819F818130910509F452C032
:100610001CF4892B39F05DC08230910511F10397EC
:1006200039F057C0FF2009F454C083E090E03DC08A
:1006300088859985FF2009F441C00A9709F049C0CF
:1006400082E090E09F838E8348E552E060E070E0B6
:100650004093700150937101609372017093730124
:1006600038C0409170015091710160917201709198
:100670007301452B462B472BA1F461E08C810E942E
:100680009E0B6CE271E080E090E00E94A00A60E0C6
:100690008C810E949E0B81E090E09F838E8319865F
:1006A0001886F11016C081E090E09F838E83198632
:1006B00018860FC088859985F11005C00A9749F4FE
:1006C0001F821E8206C00A9721F482E090E09F8379
:1006D0008E83C801DF91CF911F910F91FF900895F4
:1006E000CF92DF92EF92FF920F931F93CF93DF93FE
:1006F0006B017C01C4E7D1E000E010E0B8016C0DB3
:100700007D1D77FF02C060E070E0693582E0780708
:1007100010F068E572E0882777FD8095982F0E9499
:10072000901220E030E046E154E40E94FA1120E00B
:1007300030E040EF51E40E941C130E946212688373
:1007400019821A82085512402396003988EE18073C
:10075000A9F66091AF018FEA91E0DF91CF911F91EF
:100760000F91FF90EF90DF90CF900C94FB080F93C8
:100770001F9382E991E00E94C00782E991E00E9404
:100780004F088823A1F08091700190917101A09190
:100790007201B0917301885A9D4FAF4FBF4F809344
:1007A000700190937101A0937201B09373010E9444
:1007B000710A00916C0110916D0120916E013091D0
:1007C0006F01601B710B820B930B683E73408105B8
:1007D000910558F18091700190917101A091720181
:1007E000B09173010097A105B10559F00197A109D6
:1007F000B1098093700190937101A0937201B0933D
:10080000730108511C4F2F4F3F4F00936C01109301
:100810006D0120936E0130936F0180E691E00E949C
:10082000DE0284E591E00E94DE02809166019091F3
:100830006701892B51F480915A0190915B01892BBA
:1008400021F460E070E0CB0108C06091700170910C
:10085000710180917201909173011F910F910C941D
:1008600070039F92AF92BF92CF92DF92EF92FF926E
:100870000F931F93CF93DF93EC01E881F9819BB134
:1008800090618BB18F7E8BB95A852F81D52ED21A6C
:10089000DF82AF84AA81BB812D853C854E852F5F89
:1008A0003F5F4F5FEE80F8849984CB851181C12C26
:1008B0000C2D6C2D7C2D71811127889471117D0D6B
:1008C00008F47FEFD194889420FD170F1795889432
:1008D00021FD170F1795889422FD170F17958894FF
:1008E00023FD170F1795889424FD170F17958894EB
:1008F00025FD170F1795889426FD170F17958894D7
:1009000027FD170F17958894072F2111012FD50E5A
:10091000102F002C9BB900C017FF8BB970810027E6
:10092000889400C000C0002C8BB971117E0D00C0EE
:10093000002C9BB900C016FF8BB908F47FEFE1943F
:10094000889400C000C0002C8BB930FD070F00C098
:10095000002C9BB900C015FF8BB90795889431FD19
:10096000070F00C000C0002C8BB90795889400C009
:10097000002C9BB900C014FF8BB932FD070F0795FF
:10098000889400C000C0002C8BB933FD070F00C055
:10099000002C9BB900C013FF8BB90795889434FDD8
:1009A000070F00C000C0002C8BB90795889400C0C9
:1009B000002C9BB900C012FF8BB935FD070F0795BE
:1009C000889400C000C0002C8BB936FD070F00C012
:1009D000002C9BB900C011FF8BB90795889437FD97
:1009E000070F00C000C0002C8BB90795889400C089
:1009F000002C9BB900C010FF8BB9172F3111102F9D
:100A0000E90C00C000C0002C8BB900C000C0002C55
:100A10009BB900C017FF8BB972810027889400C072
:100A200000C0002C8BB971117F0D00C0002C9BB948
:100A300000C016FF8BB908F47FEFEA0DF11D00C06E
:100A400000C0002C8BB940FD070F00C0002C9BB9E3
:100A500000C015FF8BB90795889441FD070F00C0B2
:100A600000C0002C8BB90795889400C0002C9BB95E
:100A700000C014FF8BB942FD070F0795889400C092
:100A800000C0002C8BB943FD070F00C0002C9BB9A0
:100A900000C013FF8BB90795889444FD070F00C071
:100AA00000C0002C8BB90795889400C0002C9BB91E
:100AB00000C012FF8BB945FD070F0795889400C051
:100AC00000C0002C8BB946FD070F00C0002C9BB95D
:100AD00000C011FF8BB90795889447FD070F00C030
:100AE00000C0002C8BB90795889400C0002C9BB9DE
:100AF00000C010FF8BB9172F4111102FF19400C0C7
:100B000000C0002C8BB9FC0E00C000C09BB900C017
:100B100017FF8BB971810027889400C000C0002C9A
:100B20008BB971117D0D00C0002C9BB900C016FF60
:100B30008BB908F47FEFD194889400C000C0002CDA
:100B40008BB920FD070F00C0002C9BB900C015FF1A
:100B50008BB90795889421FD070F00C000C0002CB9
:100B60008BB90795889400C0002C9BB900C014FF76
:100B70008BB922FD070F0795889400C000C0002C98
:100B80008BB923FD070F00C0002C9BB900C013FFD9
:100B90008BB90795889424FD070F00C000C0002C76
:100BA0008BB90795889400C0002C9BB900C012FF38
:100BB0008BB925FD070F0795889400C000C0002C55
:100BC0008BB926FD070F00C0002C9BB900C011FF98
:100BD0008BB90795889427FD070F00C000C0002C33
:100BE0008BB90795889400C0002C9BB900C010FFFA
:100BF0008BB9172F2111102FD50E00C000C0002C6B
:100C00008BB9119709F086CEDF91CF911F910F918B
:100C1000FF90EF90DF90CF90BF90AF909F9008959E
:100C20000F931F93CF93DF93EC018B010E947D0AFA
:100C30002F853889621B730B6A307105B8F3F894FD
:100C4000C8010E943104F8014281538120EE31E055
:100C5000DA010E94FE13E4E09695879577956795F3
:100C6000EA95D1F720E030E0EAE94E9F212D5E9F22
:100C7000200D311D1124620F731F811D911D693ECE
:100C8000F3E07F0781059105A8F1DC01CB01885EC7
:100C90009340A109B10922E0B695A795979587954C
:100CA0002A95D1F740E050E027E0829F412D929FA6
:100CB000400D511D11242091A00130E0280F391F53
:100CC000240F351F8091BD019091BE01A091BF01FD
:100CD000B091C001432F5527840F951FA11DB11D51
:100CE0008093BD019093BE01A093BF01B093C0015A
:100CF0002093A00178940E947D0A788B6F87DF9102
:100D0000CF911F910F910895FC01118A108A0895C7
:100D1000FF920F931F93CF93DF93EC0180913A01E1
:100D20008F5F982F977090933A0180FD02C080E00A
:100D300001C080E891FD8064947009F08062F0E168
:100D4000FF2EF80E20E030E000E011E0FE01E20F9F
:100D5000F31F6485662331F070E0C8010E94A3137D
:100D60006F5F01C060E061874F2D469F040E40E039
:100D7000411D1124411102C0168202C04150468318
:100D8000662311F0615061872F5F3F4F233031059B
:100D9000E9F6DF91CF911F910F91FF900895EF92A7
:100DA000FF920F931F93CF93DF93CDB7DEB7629778
:100DB0000FB6F894DEBF0FBECDBF8C017A01F901EA
:100DC000DC011C968C917A8369835C834B835E8300
:100DD0004D8390819D8791819E8792819F878130ED
:100DE00029F4CE0101960E94880606C01C861B8647
:100DF0001A86198618861F82188AB701CE010196B5
:100E00000E948406D801ED91FC910484F585E02DC3
:100E1000BE016F5F7F4FC801099562960FB6F894C7
:100E2000DEBF0FBECDBFDF91CF911F910F91FF901D
:100E3000EF900895EF92FF920F931F93CF93DF935C
:100E4000CDB7DEB762970FB6F894DEBF0FBECDBF49
:100E50008C017A01F901DC011C968C917A836983FB
:100E60005C834B835E834D8390819D8791819E87B8
:100E700092819F87813029F4CE0101960E948806D5
:100E800006C01C861B861A86198618861F8283E078
:100E9000888BB701CE0101960E948406D801ED919E
:100EA000FC910484F585E02DBE016F5F7F4FC80182
:100EB000099562960FB6F894DEBF0FBECDBFDF91E5
:100EC000CF911F910F91FF90EF90089544E150E072
:100ED00062E070E082E991E00E94AD071092670144
:100EE00010926601109269011092680110926B01D4
:100EF00010926A0110925B0110925A0110925D01EA
:100F000010925C0110925F0110925E0108950F93A0
:100F10001F93CF93DF931F92CDB7DEB78C01FC01F7
:100F20006587862F69830E94D40BF8011486698136
:100F3000862F0E94D40B892B19F083E0F801848757
:100F40000E94710AF80160837183828393830F90FA
:100F5000DF91CF911F910F9108950F931F93CF931E
:100F6000DF93EC018A010E9487071B870A8784EFC1
:100F700091E099878887DF91CF911F910F91089514
:100F8000FF920F931F93CF93DF93EC018D850E9407
:100F9000D40BFF24F394892B09F4F12C8C85982F22
:100FA000977F9C8786958170F81651F00E94710A90
:100FB000688379838A839B838C8592E0892721C00B
:100FC0000E94710A088119812A813B81601B710B83
:100FD000820B930B0A851B8520E030E060177107B8
:100FE0008207930778F08C8581708F1559F00E94E5
:100FF000710A688379838A839B838C8591E0892732
:1010000088608C878C8583FF1EC084FD1AC00E9477
:10101000710A0C811D812E813F81601B710B820B37
:10102000930B0885198520E030E06017710782076F
:10103000930738F10E94710A6C837D838E839F83AE
:1010400024C08F7E1DC04C815D816E817F81452BC8
:10105000462B472BD1F00E94710A0C811D812E81F5
:101060003F81601B710B820B930B0885198520E073
:1010700030E0601771078207930738F08C85806134
:101080008C871C821D821E821F828C8583FB882791
:1010900080F9DF91CF911F910F91FF900895FC018E
:1010A000848580FD04C083FB882780F9089580E053
:1010B00008958F929F92AF92BF92EF92FF920F93FB
:1010C0001F93CF93DF93EC01188219821A82442375
:1010D000B9F1E0E0F0E08B010A5F1F4F7B0189E08E
:1010E000E80EF11C842E912CA12CB12CD801AE0F4E
:1010F000BF1F2C91D701AE0FBF1F6C912223E1F0CF
:101100006623D1F030E040E050E02F5F3F4F4F4F7B
:101110005F4F70E080E090E06F5F7F4F8F4F9F4F99
:101120000E947F139B01AC01C501B4010E947F1393
:10113000DE01AE0FBF1F8C933196E330F105B1F69F
:10114000CE01DF91CF911F910F91FF90EF90BF9053
:10115000AF909F908F900895CF92DF92EF92FF9281
:10116000CF93DF93EC018091A5019091A6019C01A2
:101170002F5F3F4F3093A6012093A5018617970755
:101180009CF10E94710A9B01AC01E091A501F091D4
:10119000A60188EE93E0E89FB001E99F700DF89FEB
:1011A000700D1124882777FD8095982FC090A1019C
:1011B000D090A201E090A301F090A4012C193D0968
:1011C0004E095F090E94B7133A8329831092A60142
:1011D0001092A5010E94710A6093A1017093A2016F
:1011E0008093A3019093A401DF91CF91FF90EF90A2
:1011F000DF90CF9008958F929F92AF92BF92EF921F
:10120000FF920F931F93CF93DF9300D01F92CDB720
:10121000DEB78C01F62EF80183819481A581B68119
:10122000892B8A2B8B2BD1F00E947D0A8090A701FD
:101230009090A801A090A901B090AA01681979091D
:101240008A099B09D80113968D909D90AD90BC9012
:101250001697681579058A059B05E8F20E947D0AB4
:101260006093A7017093A8018093A9019093AA01AC
:10127000D8011B96ED91FC911C97309751F0D80145
:1012800017964D915D916D917C911A978F2D0995CF
:10129000F82EA090AD01B090AE01A114B10451F1AF
:1012A000F501E484D80111968D919C9112978436B2
:1012B000910508F41486D501ED91FC91828093800C
:1012C0004F2DB501CE0101960E945908F5014585C3
:1012D0005685628173819E012F5F3F4FC501F401E6
:1012E0000995D5011C96EC921C971496AD90BC9074
:1012F0001597D3CF69E170E0C8010E94AC080F9048
:101300000F900F90DF91CF911F910F91FF90EF9071
:10131000BF90AF909F908F900895CF92DF92EF9201
:10132000FF920F931F93CF93DF93EC014423F1F0CF
:101330006115710581F19B0140E050E060E472E4C9
:101340008FE090E00E94D913CB80DC80ED80FE809E
:1013500089019A010C151D052E053F0510F4970112
:1013600086010B831C832D833E8315C06115710597
:1013700071F09B0140E050E060E472E48FE090E0A7
:101380000E94D9132B833C834D835E8304C01B8250
:101390001C821D821E82DF91CF911F910F91FF90C1
:1013A000EF90DF90CF900895CF92DF92EF92FF926F
:1013B0000F931F93CF93DF93EC016B018A017901A7
:1013C000121613061CF07A0100E010E0E881F981A2
:1013D0000480F581E02DCE010995C801880F991F81
:1013E000800F911F8C0D9D1D9B838A83FE86ED8649
:1013F000E881F9810284F385E02DCE01099541E071
:10140000BC018FEA91E00E948D09CE01DF91CF915E
:101410001F910F91FF90EF90DF90CF9008958FEF85
:101420008093AF011092B1011092B0011092BB01F4
:101430001092BA018FEF9FEFDC018093B601909379
:10144000B701A093B801B093B901089508951F9210
:101450000F920FB60F9211242F933F938F939F9368
:10146000AF93BF938091BD019091BE01A091BF0148
:10147000B091C0013091BC0123E0230F2D3720F43F
:101480000196A11DB11D05C026E8230F0296A11DDE
:10149000B11D2093BC018093BD019093BE01A09328
:1014A000BF01B093C0018091C1019091C201A09190
:1014B000C301B091C4010196A11DB11D8093C1016A
:1014C0009093C201A093C301B093C401BF91AF91A7
:1014D0009F918F913F912F910F900FBE0F901F9072
:1014E00018952FB7F8946091BD017091BE0180915D
:1014F000BF019091C0012FBF08953FB7F89480912C
:10150000C1019091C201A091C301B091C40126B55F
:10151000A89B05C02F3F19F00196A11DB11D3FBF2B
:101520006627782F892F9A2F620F711D811D911DBB
:1015300042E0660F771F881F991F4A95D1F70895DB
:10154000CF92DF92EF92FF92CF93DF936B017C01FA
:101550000E947D0AEB01C114D104E104F10489F079
:101560000E94260A0E947D0A6C1B7D0B683E734018
:1015700090F381E0C81AD108E108F108C851DC4FA6
:10158000EACFDF91CF91FF90EF90DF90CF90089559
:10159000019739F0880F991F880F991F02970197BB
:1015A000F1F70895789484B5826084BD84B5816034
:1015B00084BD85B5826085BD85B5816085BDEEE65B
:1015C000F0E0808181608083E1E8F0E0108280813A
:1015D00082608083808181608083E0E8F0E08081A8
:1015E00081608083E1E9F0E0808182608083808196
:1015F00081608083E0E9F0E0808181608083E1ECBC
:10160000F0E080818460808380818260808380813B
:1016100081608083E3ECF0E0808181608083E0EC96
:10162000F0E0808182608083E2ECF0E08081816084
:101630008083EAE7F0E0808184608083808182603B
:101640008083808181608083808180688083089529
:1016500090E0FC013197EF30F105B0F5EA5AFF4F09
:101660000C94F813809180008F7703C080918000E4
:101670008F7D80938000089580918000877FF9CFCF
:1016800084B58F7702C084B58F7D84BD0895809125
:1016900090008F7707C0809190008F7D03C080916C
:1016A0009000877F8093900008958091C0008F778D
:1016B00003C08091C0008F7D8093C0000895809109
:1016C000C200877F8093C2000895CF93DF9390E09C
:1016D000FC01E851FF4F2491FC01EA5FFE4F849129
:1016E000882349F190E0880F991FFC01E05CFE4FD0
:1016F000A591B4918E5C9E4FFC01C591D4919FB78A
:10170000611108C0F8948C91209582238C93888174
:1017100082230AC0623051F4F8948C91322F3095B4
:1017200083238C938881822B888304C0F8948C91C6
:10173000822B8C939FBFDF91CF9108950F931F93BE
:10174000CF93DF931F92CDB7DEB7282F30E0F9019A
:10175000E653FF4F8491F901E851FF4F1491F901CD
:10176000EA5FFE4F04910023C9F0882321F06983CA
:101770000E94280B6981E02FF0E0EE0FFF1FEE5C66
:10178000FE4FA591B4919FB7F8948C91611103C05D
:101790001095812301C0812B8C939FBF0F90DF9107
:1017A000CF911F910F910895CF93DF93282F30E0B1
:1017B000F901E653FF4F8491F901E851FF4FD491AD
:1017C000F901EA5FFE4FC491CC2391F081110E9490
:1017D000280BEC2FF0E0EE0FFF1FEC5DFE4FA59104
:1017E000B4912C912D2381E090E021F480E002C09F
:1017F00080E090E0DF91CF91089508950E94D20A91
:101800000E94FD0B85EC91E00E94970F0E9402025E
:10181000C0E0D0E00E94B7032097E1F30E940000EF
:10182000F9CF4091C9015091CA012091C70130916F
:10183000C80142175307B4F49091E8009570E1F3A2
:101840009091E80092FD19C08093F1008091C90148
:101850009091CA0101968F739927892B19F48EEF05
:101860008093E8008091C9019091CA0101969093FC
:10187000CA018093C90181E0089580E00895CF9264
:10188000DF92FF920F931F93CF93DF931F92CDB7F9
:10189000DEB7082F162F862F880F8E5F99830E9440
:1018A000110C83E00E94110CF02EC02E9981D92ECC
:1018B0008C2D8F19811778F4F60184910E94110CF8
:1018C000082F80E00E94110C8023FFEFCF1ADF0A5F
:1018D0008111EECF01C081E00F90DF91CF911F9178
:1018E0000F91FF90DF90CF900895615030F02091DC
:1018F000F100FC0120830196F8CF289884E68093BC
:10190000CC0108952FB7FC012083F8946770609391
:10191000E9000895CF93DF931F92CDB7DEB7682F0C
:10192000CE0101960E94820C8091F20099819FBFA6
:101930000F90DF91CF910895FF920F931F93CF9354
:10194000DF9300D0CDB7DEB7F62E8A019091CB01A0
:10195000992311F057FF03C08FEF9FEF2BC0682F23
:10196000CE0101967A830E94820C8091F20090E071
:10197000A8017A81801791070CF4AC01EF2DF72FA5
:10198000F40E84E6FE1639F028988093CC019091ED
:10199000F1009193F7CF4115510521F08091F200AC
:1019A000882321F089818FBFCA0104C08BE6809310
:1019B000E800F8CF0F900F90DF91CF911F910F911A
:1019C000FF900895CF93DF931F92CDB7DEB741E02C
:1019D00050E0BE016F5F7F4F0E949C0C019719F48D
:1019E000898190E002C08FEF9FEF0F90DF91CF9140
:1019F0000895CF93DF931F92CDB7DEB7682FCE0146
:101A000001960E94820C9091E800892F807295FFC8
:101A100004C09091F20080E4891B99819FBF0F90D0
:101A2000DF91CF9108956F927F928F929F92AF92A4
:101A3000BF92CF92DF92EF92FF920F931F93CF93BB
:101A4000DF931F92CDB7DEB7782E7B01C42EB52E63
:101A50008091CB01882369F0042F152F8AEFD82EAF
:101A6000872D8072982E9AE3A92E872D8074882E58
:101A700011C08FEF9FEF57C0872D0E94F90C682E81
:101A800081110CC0DA94A9F361E070E080E090E08D
:101A90000E94A00A0115110579F73BC0282F30E0FC
:101AA000021713070CF4602E672DCE0101960E94D9
:101AB000820C8091E80085FF29C0262D30E0021BB2
:101AC000130B992039F06A948FEF6816B1F01092D9
:101AD000F100F9CFF701862D77FE07C0815058F04D
:101AE00094919093F1003196F9CF815020F091912B
:101AF0009093F100FACFE20EF31E8091E80085FF8B
:101B00000FC00115110511F481100AC089818FBF22
:101B1000C1CF5D9884E68093CD018C2D9B2D03C0B1
:101B2000A092E800F3CF0F90DF91CF911F910F911A
:101B3000FF90EF90DF90CF90BF90AF909F908F90ED
:101B40007F906F9008951092E9001092CA01109250
:101B5000C9019093C8018093C7010895CF92DF9285
:101B6000FF920F931F93CF93DF9300D0CDB7DEB7D3
:101B7000F82E8A016B0101151105B1F0F601F7FE8F
:101B800002C0849101C0808149835A830E94110C54
:101B900001501109FFEFCF1ADF0A49815A818111E3
:101BA000EACF8FEF9FEF01C0CA010F900F90DF9136
:101BB000CF911F910F91FF90DF90CF9008951F93C9
:101BC000CF93DF931F92CDB7DEB7162F2091E80099
:101BD00022FFFCCF612F79830E94750C8BEF8093DD
:101BE000E800812F7981972F0F90DF91CF911F917E
:101BF0000895CF93DF931F92CDB7DEB71982CE0140
:101C000001960E941210CE0101960E94AD108981AA
:101C100090E00F90DF91CF9108951F920F920FB631
:101C20000F921124EF92FF920F931F932F933F93E4
:101C30004F935F936F937F938F939F93AF93BF93D4
:101C4000EF93FF93CF93DF93CDB7DEB76297DEBFFD
:101C5000CDBF1092E9008091E80083FFEBC068E0FF
:101C6000CE010A960E94750C82EF8093E8009A8557
:101C700097FF05C08091E80080FFFCCF03C08EEF86
:101C80008093E800892F807609F0B9C08B85811197
:101C900005C01092F1001092F100C5C0282F2D7FD1
:101CA000213009F4C0C0853049F48091E80080FFFC
:101CB000FCCF8C8580688093E300B5C0863009F046
:101CC00076C02D85E888F988223071F580E090E0B3
:101CD0002A8B0E94A30D0E94F90D99E08E010F5FDF
:101CE0001F4FF801392F11923A95E9F799832A8904
:101CF0002A8391E09E8390E898879AEF99872091B4
:101D0000C9013091CA01275F3F4F3C832B838D83EC
:101D1000C7010E94A30D49E050E0B80180E00E9495
:101D2000AE0D0E94F90D7FC0C7012A8B0E94A30D42
:101D30002A89223241F482E290E00E94B810892B75
:101D400009F071C074C0213069F4888999890897B5
:101D500011F42093C6018091C601811118C065E677
:101D600071E01AC0233009F062C08C85882391F09D
:101D7000823021F460E183E891E006C0813009F00F
:101D800056C06BE087E791E00E943F0C4AC063E5D4
:101D900071E002C064E971E06115710509F447C0A2
:101DA000FB01449150E080E80E94AE0D3CC08730BA
:101DB00009F43DC0883021F481E08093F10033C004
:101DC000893089F5937099F5EFE4F1E081E021E045
:101DD00096E38093E9002093EB0034913093EC007C
:101DE0009093ED008F5F3196853099F78EE7809361
:101DF000EA001092EA008C858093CB0114C0888998
:101E000099890E94A30D8E85811105C0CE010A9685
:101E10000E941D1006C0823051F4CE010A960E9425
:101E2000E010882321F08EEF8093E80003C081E268
:101E30008093EB0062960FB6F894DEBF0FBECDBF65
:101E4000DF91CF91FF91EF91BF91AF919F918F91D2
:101E50007F916F915F914F913F912F911F910F91C2
:101E6000FF90EF900F900FBE0F901F9018958093EA
:101E7000E9008091F200882319F08AE38093E8005A
:101E800008951F920F920FB60F9211242F933F9334
:101E90004F935F936F937F938F939F93AF93BF9372
:101EA000EF93FF938091E1001092E10083FF0FC058
:101EB0001092E90091E09093EB001092EC0092E315
:101EC0009093ED001092CB0198E09093F00082FF88
:101ED0001DC083E00E94370F8091CD01882339F027
:101EE0008091CD0181508093CD01882369F080914C
:101EF000CC01882359F08091CC0181508093CC0192
:101F0000811104C0289A02C05D9AF1CFFF91EF9130
:101F1000BF91AF919F918F917F916F915F914F9101
:101F20003F912F910F900FBE0F901F901895109218
:101F3000CB0181E08093D70080EA8093D80082E1D2
:101F400089BD09B400FEFDCF61E070E080E090E063
:101F50000E94A00A80E98093D8008CE08093E20080
:101F60001092E000559A209A0895CF93DF931F9224
:101F7000CDB7DEB76983DC01ED91FC910280F3817E
:101F8000E02D41E050E0BE016F5F7F4F09950F905B
:101F9000DF91CF910895CF93DF93EC018C859D85E0
:101FA00097FF05C082E00E94E20C9D878C878C859C
:101FB0009D85DF91CF91089583E00C94370FFC014C
:101FC0008485958597FD06C082E00E948A0C90E08A
:101FD0000196089582E00E948A0C90E00895FC0129
:101FE0008485958597FD05C02FEF3FEF35872487C2
:101FF000089582E00C94E20CCF93DF93EC01809182
:102000000701882331F083E00E94130D181619068A
:1020100034F081E090E09B838A8380E090E0DF9160
:10202000CF910895FC0120812E5F208342E450E08F
:1020300068E971E080E80C94AE0DFC01818190812B
:10204000913A59F4813209F03CC047E050E060E039
:1020500071E080E00E94AE0D43C0913291F5803274
:1020600039F467E070E080E091E00E94DF0D06C087
:10207000823209F035C0828180930701809100018E
:1020800090910101A0910201B0910301803B944025
:10209000A105B105C1F48091070180FD14C087E757
:1020A00097E790930108809300082BE088E190E087
:1020B0000FB6F894A895809360000FBE209360003F
:1020C0000FC080E0089588E10FB6F8948093600017
:1020D000109260000FBEA89510920108109200089F
:1020E00081E008951092D1011092D00188EE93E022
:1020F000A0E0B0E08093D2019093D301A093D401EB
:10210000B093D50180E291E09093CF018093CE010E
:102110008FEF9FEF9093DB018093DA010895FF9298
:102120000F931F93CF93DF93EC01F62EE881F98193
:102130000480F581E02D09958C01E881F981068004
:10214000F781E02D6F2DCE010995C8019927DF9108
:10215000CF911F910F91FF900895FC0120812F5F77
:10216000208349E150E06AE572E080E80C94AE0D0E
:1021700045E650E063E772E080E80C94AE0DEF9224
:10218000FF920F931F93CF93DF931F92CDB7DEB7CC
:1021900089838B017A0141E050E0BE016F5F7F4F80
:1021A00084E00E94130DA701B80184E40E94130D7E
:1021B0000F90DF91CF911F910F91FF90EF900895B5
:1021C000FC0191818081813A31F481E0913091F07C
:1021D000933089F411C0813271F49B3021F48281F3
:1021E0008093090105C09A3031F4828180930801FF
:1021F00081E00895089580E0089548E050E082E08D
:102200000C94BF10CF93DF93DC01683818F0E8E737
:10221000E60F25C0E62FF0E067FF11C0E058F10996
:1022200081E090E001C0880FEA95EAF714969C914E
:102230001497982B14969C931497E0E010C0E652E4
:10224000FE4FE491EE2309F440C0E7FF08C0149666
:102250008C911497826014968C931497EF7716964E
:102260008C9116978E1741F117968C9117978E17B0
:1022700019F118968C9118978E17F1F019968C9188
:1022800019978E17C9F01A968C911A978E17A1F08C
:102290001B968C911B978E1779F080E090E0ED01F2
:1022A000C80FD91F2E81211102C0EE8305C00196EF
:1022B00086309105A1F709C0BD016C5F7F4FCD014C
:1022C0000E94FD1081E090E008C081E090E013964C
:1022D0009C938E93129780E090E0DF91CF910895C8
:1022E000683818F0E8E7E60F25C0E62FF0E067FF52
:1022F00012C0E058F10921E030E001C0220FEA9558
:10230000EAF72095DC0114963C9114973223149639
:102310003C93E0E00FC0E652FE4FE491EE2329F13A
:10232000E7FF08C0DC0114962C9114972D7F1496BA
:102330002C93EF7720E030E0EE2351F0DC01A20F88
:10234000B31F16964C9116974E1302C016961C9208
:102350002F5F3F4F2630310579F7BC016C5F7F4F0F
:102360000E94FD1081E090E0089580E090E00895E3
:10237000FC0116821782108611861286138614823B
:10238000BC016C5F7F4F0C94FD1010922A021092DA
:1023900021021092200280E391E090931F0280932B
:1023A0001E020895CF92DF92EF92FF920F931F9338
:1023B000CF93DF936C017A01EB01E60EF71E00E08C
:1023C00010E0CE15DF0561F06991D601ED91FC9129
:1023D0000190F081E02DC6010995080F191FF1CF7A
:1023E000C801DF91CF911F910F91FF90EF90DF9087
:1023F000CF9008950CD0E6C0DED040F0D5D030F0BC
:1024000021F45F3F19F0C7C0511110C1CAC0EBD011
:1024100098F39923C9F35523B1F3951B550BBB27AB
:10242000AA2762177307840738F09F5F5F4F220F58
:10243000331F441FAA1FA9F333D00E2E3AF0E0E851
:1024400030D091505040E695001CCAF729D0FE2F9D
:1024500027D0660F771F881FBB1F2617370748072F
:10246000AB07B0E809F0BB0B802DBF01FF279358E5
:102470005F4F2AF09E3F510568F08DC0D7C05F3F87
:10248000ECF3983EDCF3869577956795B795F795CD
:102490009F5FC9F7880F911D9695879597F90895C5
:1024A000E1E0660F771F881FBB1F62177307840761
:1024B000BA0720F0621B730B840BBA0BEE1F88F770
:1024C000E095089598D088F09F5790F0B92F9927FC
:1024D000B751A0F0D1F0660F771F881F991F1AF02F
:1024E000BA95C9F712C0B13081F09FD0B1E008951C
:1024F0009CC0672F782F8827B85F39F0B93FCCF39D
:10250000869577956795B395D9F73EF49095809524
:10251000709561957F4F8F4F9F4F0895E89409C044
:1025200097FB3EF490958095709561957F4F8F4F06
:102530009F4F9923A9F0F92F96E9BB279395F6951C
:10254000879577956795B795F111F8CFFAF4BB0F9A
:1025500011F460FF1BC06F5F7F4F8F4F9F4F16C0FE
:10256000882311F096E911C0772321F09EE8872F88
:10257000762F05C0662371F096E8862F70E060E044
:102580002AF09A95660F771F881FDAF7880F9695BD
:10259000879597F9089597F99F6780E870E060E064
:1025A00008959FEF80EC089500240A9416161706EC
:1025B00018060906089500240A9412161306140634
:1025C00005060895092E0394000C11F4882352F097
:1025D000BB0F40F4BF2B11F460FF04C06F5F7F4F4F
:1025E0008F4F9F4F089557FD9058440F551F59F036
:1025F0005F3F71F04795880F97FB991F61F09F3FF0
:1026000079F087950895121613061406551FF2CF18
:102610004695F1DF08C0161617061806991FF1CF68
:1026200086957105610508940895E894BB2766278F
:102630007727CB0197F908950BD0C4CFB5DF28F0E9
:10264000BADF18F0952309F0A6CFABCF1124EECF57
:10265000CADFA0F3959FD1F3950F50E0551F629FFD
:10266000F001729FBB27F00DB11D639FAA27F00DEB
:10267000B11DAA1F649F6627B00DA11D661F829F12
:102680002227B00DA11D621F739FB00DA11D621FF7
:10269000839FA00D611D221F749F3327A00D611D14
:1026A000231F849F600D211D822F762F6A2F1124F6
:1026B0009F5750408AF0E1F088234AF0EE0FFF1F49
:1026C000BB1F661F771F881F91505040A9F79E3F80
:1026D000510570F060CFAACF5F3FECF3983EDCF37A
:1026E000869577956795B795F795E7959F5FC1F7BD
:1026F000FE2B880F911D9695879597F90895DB011C
:102700008F939F930E940514BF91AF91A29F800D5C
:10271000911DA39F900DB29F900D11240895AA1BA7
:10272000BB1B51E107C0AA1FBB1FA617B70710F0BC
:10273000A61BB70B881F991F5A95A9F780959095EE
:10274000BC01CD01089597FB072E16F4009407D025
:1027500077FD09D00E948F1307FC05D03EF49095B9
:1027600081959F4F0895709561957F4F0895A1E2DF
:102770001A2EAA1BBB1BFD010DC0AA1FBB1FEE1FFB
:10278000FF1FA217B307E407F50720F0A21BB30B46
:10279000E40BF50B661F771F881F991F1A9469F7C2
:1027A00060957095809590959B01AC01BD01CF011E
:1027B0000895052E97FB1EF400940E94F01357FD18
:1027C00007D00E94B71307FC03D04EF40C94F0130B
:1027D00050954095309521953F4F4F4F5F4F08954D
:1027E00090958095709561957F4F8F4F9F4F08957D
:1027F000EE0FFF1F0590F491E02D09940E94101434
:10280000B7FF0895821B930B08950E941014A59F93
:10281000900DB49F900DA49F800D911D11240895DB
:10282000A29FB001B39FC001A39F700D811D112411
:10283000911DB29F700D811D1124911D0895F89472
:02284000FFCFC8
:1028420000E1000000000000010100000000CF06CE
:102852001A07C5019E019A01C2011006000000007C
:10286200B50FFC0FDF0FEF0FCB0FDC0F00000000E6
:0A2872008F10D21102117011B8117D
:00000001FF
